:020000040800F2
:10000000E0100020C1020008252600081D26000877
:1000100021260008FB1E0008353200080000000001
:10002000000000000000000000000000D3020008F3
:100030004B22000800000000D702000885290008B4
:10004000DB020008DB020008DB020008DD270008F5
:10005000DB020008DB0200084D220008252300080F
:10006000492300086D23000891230008151F00088C
:10007000411F0008691F0008991F0008C51F0008DC
:10008000F51F000821200008DB020008DB02000841
:1000900011320008DB020008DB020008B52300086B
:1000A000DB020008D12A0008DB020008DB0200089E
:1000B000692B0008FD2B0008952C0008DB020008C6
:1000C000DB020008DB020008DB0200083928000818
:1000D000DB020008F12E0008552F0008B92F000898
:1000E00071220008DB020008DB020008DB020008C6
:1000F000DB020008DB020008DB020008DB0200086C
:10010000DB020008DB0200082D2D0008DB020008DE
:10011000292E00088D2E0008B92D0008DD2D0008BD
:10012000DB020008DB020008DB020008DB0200083B
:1001300000F002F800F09BF80AA090E8000C82445E
:100140008344AAF10107DA4501D100F090F8AFF23B
:10015000090EBAE80F0013F0010F18BFFB1A43F0A5
:100160000103184798540000B8540000103A24BF07
:1001700078C878C1FAD8520724BF30C830C144BF0C
:1001800004680C607047000000230024002500264E
:10019000103A28BF78C1FBD8520728BF30C148BFEA
:1001A0000B6070476E2900F03D84702900F097873E
:1001B000662904F05187652904F04E87672904F009
:1001C0004B876129AFF3008003681B0A28BF41F009
:1001D0008001692900F0AC81642900F0A9817529AA
:1001E00000F0A6816F2900F02487782900F063874A
:1001F000E92900F0BF86E42900F0BC86F52900F06B
:10020000B986EF2900F02187F82900F0628703689A
:10021000DB0928BF41F08001632901F04180732987
:1002200001F04680E32901F05180F32901F0568066
:10023000002070471FB59DE8030000F029FB00F087
:100240008CFA00F005FB04000020002104F086FD7C
:10025000401C60600020002104F096FDE06000F08A
:10026000E1FA1FBD10B5002000F044FF10BD01F001
:10027000F6F81146FFF7DEFF04F060FB01F014F919
:1002800003B4FFF7EFFF03BC01F0E2F80B49D1F82C
:1002900000C04A685CF8043B1068184442F8040B3C
:1002A0008C4528BFA1F1DC0C8A4228BFA1F1DC02F9
:1002B000C1F800C04A6020F000407047740A002076
:1002C0000948804709480047FEE7FEE7FEE7FEE7EA
:1002D000FEE7FEE7FEE7FEE7FEE7FEE70448054926
:1002E000054A064B70470000712A000831010008DA
:1002F000E00A0020E0100020E00C0020E00C0020CC
:1003000010B500F0A5FA001D10BD00BF514A000055
:1003100070B5064600F098FA056806F10B0020F06B
:100320000704B4429CBF002070BD2B466A68BAB176
:100330001068A04210D304F1080188423CBF506805
:10034000586007D35168101941601168091B01609A
:1003500058601460101D70BD13465268002AE7D122
:100360002146284600F080FA0028DED170BD70B525
:100370000446051F00F068FA0068002C14BF4468AA
:1003800070BD002C18BFAC423CBF20466468F8D357
:1003900001680A18AA4218BF456003D12A680546B9
:1003A0001144016028684119A1421CBF6C6070BDF6
:1003B0006168696021680844286070BD53EA020CD6
:1003C00000F069802DE9F04B4FF00006002B1FBFB5
:1003D000B3FA83F503FA05F424FA05F65E4012BF7A
:1003E0001643B2FA82F502FA05F4C5F120051EBFE4
:1003F00022FA05FC44EA0C04203556EA044C4FEA84
:10040000144418BF641C4FF000084FF000099042DC
:1004100071EB030C39D3002919BFB1FA81F701FA46
:1004200007F6B0FA80F700FA07F6C7F120071EBFFB
:1004300020FA07FC46EA0C062037B6FBF4FCA7EBD3
:100440000507103F07F01F0BCBF120060CFA0BFB42
:100450002CFA06F644BFB3460026202FA4BF5E4602
:100460004FF0000B5BEA060C08BF4FF0010B19EBD5
:100470000B09ABFB027C48EB0608C01B06FB02CC59
:100480000BFB03CC71EB0C01C1E70B460246414666
:100490004846BDE8F08B13B54FF000004FF0000167
:1004A000AFF30080BDE81C40704700007CB51D46DE
:1004B00016460C00009001D02044401E074B7B44A0
:1004C0002A4669460190304600F0D5FC05461CB12D
:1004D0000020694600F0E2FC28467CBDE5090000EA
:1004E00070B5044685690068C10601D5302600E074
:1004F0002026C00707D070BDD4E9012130469047BF
:10050000206A401C20626D1EF6D570BD70B5044691
:1005100085690078C00707D170BDD4E9012120208A
:100520009047206A401C20626D1EF6D570BD000009
:100530002DE9F0410646002410687529314616A5BC
:1005400010D000F0DBF9002802DA404213A507E0E2
:1005500031688A0701D512A502E0490704D511A523
:10056000012401E000F0D3F900210A2206F124075A
:1005700009E0B0FBF2FCB0FBF2F302FB1C003030F0
:1005800078541846491C0028F3D123462A463046A1
:10059000BDE8F04100F0EDB9000000002D000000C2
:1005A0002B000000200000002DE9F05F8946044682
:1005B0004FF0000ADFF874B1FB44C0F820A02046D9
:1005C000E1688847002874D0252806D0D4E90121A5
:1005D0009047206A401C2062F1E700265F462046D3
:1005E000E16888472028054607DB312D05D27819B8
:1005F00010F8200C08B10643F1E7B00701D526F04A
:100600000406C4F81CA00027C4F818A02A2D09D09D
:10061000284603F07BFF38B304EB8708303DC8F869
:10062000185019E059F8041B204604EB8702916129
:10063000E1688847012F054618D1E069002820DAD3
:1006400026F020061DE0D8F8180000EB800005EB2E
:1006500040003038C8F818002046E1688847054651
:1006600003F054FF0028EED1012F0AD02E2D08D11F
:100670002046E16888477F1C0546022F46F0200689
:10068000C4DBA069002803DA404246F00106A061FD
:10069000F00701D026F010066C2D0BD0682D09D084
:1006A0004C2D39D06A2D35D0742D35D07A2D33D0DC
:1006B00016E038E0E1682F4620468847B8420546F4
:1006C00009D16C2F26D04FF48060E16806432046A4
:1006D0008847054604E06C2F1AD04FF4807006431B
:1006E0000DB3A5F14100192802D8203546F4006663
:1006F0004A462946204626604E46FFF753FD80B104
:1007000001280BD0F61D26F0070000F1080956E776
:100710004020E4E78020D8E70020D6E706F104096E
:100720004DE7284652E7206ABDE8F09F004D0000E3
:100730000B4910B5A1F17C020A4CC2E937123721EE
:1007400006E000EB104342F82130074B00FB03406A
:100750000B1EA1F10101F4DC10BD0120E8E700004F
:10076000140A0020E119D666CD0D01002DE9F041F3
:10077000074615460E461020FFF7CAFD04000AD0B2
:100780006760C4E9026500F067F8016821600460F1
:100790000020BDE8F0810120FBE700004FF0013CA4
:1007A00050F8042B51F8043B9A4221D1A2EB0C03E0
:1007B000934313EACC1317D150F8042B51F8043BA0
:1007C0009A4215D1A2EB0C03934313EACC130BD13D
:1007D00050F8042B51F8043B9A4209D1A2EB0C03C8
:1007E000934313EACC13DBD04FF00000704700BFF7
:1007F000D01A01BAB1FA81F101F0180122FA01F020
:10080000CB40C1F12001DBB2C0B2C01A2CFA01F317
:10081000D11A914311EAC311E6D17047704770476E
:100820007047000070B5064C7C44064D7D4403E0E3
:10083000206820448047241DAC42F9D170BD0000DF
:100840001C4F0000284F000000487047840A002019
:10085000004870479C0A002000487047B40A0020F6
:10086000704770477047704738B504460A46002005
:100870006946AFF30080002808BF38BD02460099E2
:10088000204600F063FC012038BD012000F0C1BD0E
:10089000F8B5AFF30080054600200C46102000BFDD
:1008A0000646A819A0420DD9324669460020AFF38A
:1008B0000080070008BF00F0ACFD0098A04218BF00
:1008C0000546C419FFF7C0FF05600746F01D20F07C
:1008D00007004619284600F00AF8B44208BFF8BDE0
:1008E000A21B31463868BDE8F84000F02FBC00215B
:1008F0000160C0E9011070471020704709684A057F
:1009000001D540B27047C905FCD500B270470968EF
:100910004A0501D5C0B27047C905FCD580B2704701
:1009200070B50C460546012A05D02878800600D50A
:10093000EA69002302E0012305E05B1C934202D236
:10094000E05C0028F9D1A869E618C01AA861286AF5
:10095000184428622846FFF7C3FD04E0D5E90121C9
:1009600014F8010B9047B442F8D32846FFF7CEFDA8
:1009700070BD2DE9F0470D4699469246044600F1B8
:1009800024080168880604D5E06921F0100121607F
:1009900000E00120A84201DD471B00E00027A1691B
:1009A0007A1902EB0900081AA0612078C00602D467
:1009B0002046FFF795FD002608E0D4E901211AF84A
:1009C00006009047206A401C761C20624E45F4DBEE
:1009D0002078C0060AD52046FFF782FD06E0D4E95C
:1009E000012130209047206A401C2062381EA7F168
:1009F0000107F4DC07E0D4E9012118F8050090476D
:100A0000206A401C2062281EA5F10105F3DC204667
:100A1000FFF77CFD2078000602D50220BDE8F087B4
:100A20000120FBE711680268006A530501D50870D0
:100A30000AE0D30501D5088006E0130603D5C217E6
:100A4000C1E9000200E008600120704770472DE90D
:100A5000FF4F0C461E464FF0FF378BB0D2E9000126
:100A6000DDF860800A908A46C1F30A5505B93D4613
:100A7000002108464FF00000BAF1000F00F44000DA
:100A800005DA00EB80004FF4400101EA50004FEA24
:100A90009059B9F1010F00DDB9460A9850EA4A00B1
:100AA0000ED044F61050A5F2FF3545432F14B8F18F
:100AB000000F1ED07542291E1EDDC9F100021CE088
:100AC000B8F1010F4FF0000001D0302103E0F243F4
:100AD00005E02154401CB042FBDB304600220021DF
:100AE00021540B99C1F80880C1E900200FB0BDE87E
:100AF000F08FBD1B6D1CDEE74A4600DA694206A88E
:100B000000F0F0FB06AB93E8070003AB83E80700B7
:100B100050460A9900F019FD8DE80700A0F5005035
:100B20001F3800900398002D0ADD42F21F014A464B
:100B30000844002303A90390684600F082FF09E0FF
:100B4000A0F500504A461F38002303A903906846C9
:100B500000F08CFF8DE807000004000C03D04FF07C
:100B6000FF30410800E01046B8F1000F03D000222A
:100B7000009215461EE0751E05D400F001FB3032D0
:100B800062556D1EF9D5B3460122084302D00022FA
:100B90007F1C04E02078302801D100227F1E002A2B
:100BA000099784D01DE0112D07DA00F0E9FA303200
:100BB00062556D1C50EA0102F5D1084302D000983D
:100BC000C8B10EE00021681E05E0235C625C63543E
:100BD0002254401E491C8142F7DBAB46A81B401E35
:100BE0000990002004F80B000B98099AC0F80880BF
:100BF000C0E9002B7AE711264FF0000857E72DE9EE
:100C0000F04F88460446D21D22F0070191B0D1E989
:100C10000001CDE90A0103F067FA02460B98C00F04
:100C200001D02D2007E02068810701D52B2002E0AC
:100C3000202101EAC000032A099001D0072A05DB20
:100C400003464146204600F0E1FA0BE12078800699
:100C500001D5E06900E00620B8F1650F814606D0B5
:100C6000B8F1660F18D0B8F1670F70D131E00020ED
:100C7000B9F1110F009001DB112301E009F101032B
:100C80000AAA01A90CA8FFF7E2FEDDE90C70002614
:100C900009F10105834647E001204B4600904FF0E3
:100CA00000470AAA01A90CA8FFF7D1FEDDE90DB0A3
:100CB0000C995D46002610B909F101000D18B9EB39
:100CC000050003D4C0F1FF3609F10105A5EB0900C9
:100CD0002BE0B9F1010F01DA4FF001090020B9F161
:100CE000110F0090484601DD112300E003460AAAD7
:100CF00001A90CA8FFF7ABFEDDE90C704D460026FC
:100D00008346207800070AD4AB4500DA5D4601A887
:100D1000012D04DD411911F8011C302907D04F4580
:100D200002DA17F1040F04DA012082460FE06D1E8B
:100D3000EEE7002F02DCED1B3E4403E0781CA842E6
:100D400000DD7D1CB81B00F1010A4FF00047207840
:100D5000000703D4AA4501DB4FF0FF3A0021B7F1A9
:100D6000004F0DF143088DF8431024D002202B23AF
:100D7000002F01DA7F422D230A21021EA0F101007B
:100D800000DC5FB197FBF1FC97FBF1F201FB1C7CEF
:100D900017460CF1300C08F801CDEEE7A8F1010080
:100DA00003702188090501D5452100E06521A0F1E6
:100DB000010800F8011C09980FA9A1EB0807FF1D05
:100DC00000B10120411901EBEA70A1693844081A09
:100DD000401EA0612078C00602D42046FFF780FBA9
:100DE000099828B1D4E901219047206A401C20626B
:100DF0002078C00622D52046FFF772FB1EE0002EA9
:100E000004DBB34502DD01A8805D00E03020D4E9B9
:100E100001219047206A401C2062761CAAF1010043
:100E20005FEA000A0AD1FFF713FDC0680168405C61
:100E3000D4E901219047206A401C2062281EA5F1B8
:100E40000105DCDC07E0D4E9012118F8010B90472B
:100E5000206A401C2062381EA7F10107F3DC2046FF
:100E6000FFF754FB032011B041E6000001694A1C62
:100E700002610878704700B58FB0CDE901310021DB
:100E8000059105497944CDE9031011466846FFF7FD
:100E90008BFB0FB000BD0000E5FFFFFF0A6802F802
:100EA000010B0A607047D1E900239A4202D2531C19
:100EB0000B601070704700002DE9FF5F15468A46F1
:100EC0000446DFF8AC80F8440027D8E900103E461D
:100ED000CDE9001010E03AF816106A4602A800F0BA
:100EE00073FA411C07D02178890603D5E2693918C5
:100EF00091420DD80744761C2078800602D5E0691F
:100F0000B84205DDAE42E6DB3AF816000028E2D131
:100F1000A069C01BA0612046FFF7E2FAD8E90010E3
:100F2000CDE90010002017E03AF818106A4602A830
:100F300000F04AFAB0F1FF3F81460BD000250DF1D9
:100F4000080B05E0D4E901211BF8050090476D1C52
:100F50004D45F7D308F10100B0428046E4DB206A3A
:100F6000384420622046FFF7D1FABDE8FF9F000019
:100F7000064400002DE9F0418046D21D22F0070210
:100F80000025D2E90002F52915A614D0011E72F140
:100F9000000106DA0023D0EB030063EB020211A686
:100FA00008E0D8F800108B0701D50FA602E049072A
:100FB00001D50EA601251146002408F1240704E0FE
:100FC00000F0DEF830323A55641C50EA0102F7D1E5
:100FD0002B46324621464046BDE8F041FFF7C9BCEA
:100FE000000000002D0000002B0000002000000089
:100FF00030B4002100F1240408E002F00705D20813
:10100000303542EA4372DB086554491C52EA030555
:10101000F3D10468002310A2250707D5A40600D445
:1010200021B1C46901230DA2641EC46130BCFFF765
:10103000A0BC10B5044621461068FFF768FC0246C4
:101040002046BDE810400023D2E7D21D22F0070160
:10105000D1E90023CCE700000000000030000000D0
:10106000F0B40D460188090502D5214C7C4402E00C
:101070001F4C7C440E34002100F1240608E002F0ED
:101080000F071209E75D42EA03721B097754491CF6
:1010900052EA0307F3D102780023120704D5702D1A
:1010A00006D009B1022311342246F0BCFFF761BC1F
:1010B00001231034F8E770B504460D462146106848
:1010C000FFF725FC024629462046BDE87040002374
:1010D000C6E7D21D22F00703D3E90023C0E7036867
:1010E000126843F0200303600823C3610023B7E7BD
:1010F000684200002DE9F0410646FFF7ADFB80464F
:10110000454613E016B1E068B0420ED12068286071
:10111000D4E90101D8F8007088472046FFF727F985
:10112000D8F80000B842EBD100E025462C68002C2E
:10113000E8D1BDE8F08110B500F072F9BDE81040CB
:1011400000F062B9004870477C0A002003464068FE
:101150008C46002818BF88423CBF03464068F8D33D
:1011600018681844884207D00CF1030020F00700EB
:10117000001D411A521A0146081D0A60FFF7F7B810
:1011800030B5B0F10A024FEA900E71F100034EEA59
:10119000817EB0EB0E0061EB91014FEA101E4EEA2A
:1011A000017E10EB0E0041EB11114FEA102E4EEABA
:1011B000016E10EB0E0041EB11214FEA104E4EEA8A
:1011C000014E10EB0E0041EB1141401841F10001BE
:1011D0004FEAD00040EA41704FEAD10110EB8005A0
:1011E0004FEA810444EA907444EB01046D1944EB26
:1011F0000404521BA3414FF0000348BF0A3200D53C
:1012000030BD401C41F1000130BD00002DE9F0412E
:101210001F46044603260168072A01F4006004DB28
:1012200008B116A505E016A503E008B115A500E074
:1012300015A521F010002060A069C01EA0610FB1AB
:10124000401EA0612046FFF74BF94FB1D4E90121C0
:1012500038469047206A401C2062C01C206206E08D
:10126000206AFAE7D4E9012115F8010B9047761EB0
:10127000F8D22046FFF74AF9BDE8F0814E414E0012
:101280006E616E00494E4600696E660010B5436996
:1012900013B1AFF3008001E0FFF742FB012010BD66
:1012A000127800F124010A7000224A700122EDE751
:1012B00011684FF0FF32E9E710B5436913B1AFF39E
:1012C000008001E0FFF7F8FD012010BD128800F159
:1012D000240182840022C2840122EDE711684FF0CC
:1012E000FF32E9E72DE9F047814616468AB03548D6
:1012F00078440DC88DE80D0032487844801C03AC5A
:101300000DC884E80D0041F69B300844372190FB5E
:10131000F1F290FBF1F5A5F1800501FB12041B3CF5
:1013200002D56442012000E00020DFF898A080464A
:101330000027FA44AAF1BE0A0EE0E0070AD03246BE
:10134000684607EB470101230AEB810100F08EFBA1
:101350008DE8070064107F1C002CEED1194F7F44EC
:10136000AE3F19E0E80715D007EB04100DF1180A9D
:1013700090E80E008AE80E00C068F04201D198198A
:1013800008903246012306A903A800F06FFB03ABC7
:1013900083E807006D10641C002DE3D14FF00103BA
:1013A00032466946B8F1000F03A802D000F049FBAD
:1013B00001E000F05BFBC9E90001C9F808200AB0B0
:1013C000BDE8F0878840000070B516460C4605461B
:1013D000FEF796FF036893F80101012806D0FF2C61
:1013E0000FD8185D68B101202C7070BDD3F80701CB
:1013F0003246214603F2071303442846BDE87040F5
:1014000018474FF0FF3070BD002801D000F020B821
:10141000704710B500F06AF8BDE81040FFF7F4BF60
:1014200010B5002102A000F048F8012010BD000016
:101430005349475056464E3A20507572652076699A
:10144000727475616C20666E2063616C6C656400FB
:1014500001491820ABBEFEE7260002007047754622
:10146000FFF770FEAE4605006946534620F00700C0
:10147000854618B020B5FEF731FFBDE820404FF09B
:1014800000064FF000074FF000084FF0000B21F06E
:101490000701AC46ACE8C009ACE8C009ACE8C0093B
:1014A000ACE8C0098D46704710B50446AFF3008024
:1014B0002046BDE81040FEF7E3BE70B505460C4679
:1014C0000A2000E06D1C00F039F835B128780028BA
:1014D000F8D102E0641C00F031F814B12078002843
:1014E000F8D1BDE870400A2000F028B810B50128F6
:1014F00005D0002103A0FFF7E0FF012010BD09A1E6
:10150000F8E7000053494752544D454D3A204F7576
:1015100074206F662068656170206D656D6F7279EB
:10152000000000003A2048656170206D656D6F72A3
:101530007920636F727275707465640008B56946CE
:101540008DF800000320ABBE08BD5FEA400C08BF69
:1015500091F0000F4FEA8C234FEAC12243EA515128
:101560004FEA1C5018BF00F5F0404FEA300018BF9A
:1015700041F000415FEA6C5C00F02980BCF1FF3F64
:1015800008BF40F080407047130C06BF12044FF0B4
:10159000100C4FF0000C130E04BF12020CF1080CDB
:1015A000130F04BF12010CF1040C930F04BF92003F
:1015B0000CF1020CD30F04BF52000CF1010C1146C8
:1015C0004FF00002A0F11F00A0EB0C00704711F0DB
:1015D000004F08BF704731F000413FF4D5AF0B0C0E
:1015E00006BF09044FF0100C4FF0000C0B0E04BFA7
:1015F00009020CF1080C0B0F04BF09010CF1040CDB
:101600008B0F04BF89000CF1020CCB0F04BF490003
:101610000CF1010CCCF12003A0EB0C0022FA03F337
:1016200002FA0CF241EA030100F10100704720F0D8
:101630007F4C80EA030023F07F47ACEB070303F500
:101640007C5300F0004003F1FF032DE980494FEA8D
:10165000154B09B44FEA144325EA0B4E24EA03481C
:101660000FF2042606EB132749083E785FEA3202A0
:1016700003FB0667C7F5000707FB06F64FEA54377A
:101680004FEAD64606F1020607FB066CCCF1005C79
:101690004FEA1C472CEA074C07FB06F40CFB06F547
:1016A00004EB15464FEA961634BF00204FF0004079
:1016B0004FEAD13706FB07FC4FEA1C4C0CFB0BF73B
:1016C000D21B03FB0CF761EB07010CFB0EF7B0EB31
:1016D000074072EB17420CFB08F734BFA2EB07423E
:1016E000B2EB074261EB17414FEA0C444FEA910716
:1016F00006FB07FC4FEA1C4C0CFB0BF7B0EBC7409A
:1017000072EB573203FB0CF734BFA2EBC742B2EBCC
:10171000C74261EB57310CFB0EF7B0EBC70072EB21
:1017200057720CFB08F734BFA2EBC702B2EBC7023B
:1017300061EB5771039F4FEA816141EA921104EB1B
:10174000CC044FEAD1374FEA826206FB07FC42EA3B
:1017500090124FEA80604FEA1C4C0CFB0BF7D21B37
:1017600003FB0CF761EB07010CFB0EF7B0EB074036
:1017700072EB17420CFB08F734BFA2EB0742B2EB47
:10178000074261EB17414FEA8C554FEA910704EB92
:101790009C2406FB07FC4FEA1C4C0CFB0BF7B0EB40
:1017A000C74072EB573203FB0CF734BFA2EBC742C2
:1017B000B2EBC74261EB57310CFB0EF7B0EBC70041
:1017C00072EB57720CFB08F734BFA2EBC702B2EB07
:1017D000C70261EB577115EB4C254FEA816141EA75
:1017E00092114FEA82624FEAD13742EA901206FB29
:1017F00007FC44F100044FEA80604FEA1C4C0CFBEC
:101800000BF7D21B03FB0CF761EB07010CFB0EF788
:10181000B0EB074072EB17420CFB08F734BFA2EBAA
:101820000742B2EB074261EB174115EB1C154FEA7B
:10183000813141EA92414FEA823242EA90424FEAD4
:1018400080304FEA0C7644F1000448EA03434EEA44
:101850000B484FF0000EB2EB080C71EB030724BFEE
:10186000624639464EEB0E0E4FF0000B0018524107
:1018700049414BEB0B0BB2EB080C71EB03077BF10F
:10188000000B24BF624639464EEB0E0E4FF0000BA4
:101890000018524149414BEB0B0BB2EB080C71EBBA
:1018A00003077BF1000B24BF624639464EEB0E0E58
:1018B00051EA020718BF46F0010616EB0E7655F105
:1018C000000254F1000103D5BDE88901BDE800889C
:1018D000BDE88901BDE80048B619524141EB01015C
:1018E000A3F10103704780807F7E7D7C7B7A7978CD
:1018F000777676757473727171706F6E6E6D6C6CD5
:101900006B6A6A6968686766666564646363626176
:101910006160605F5F5E5E5D5D5C5C5B5B5A5A59F7
:101920005958585757565655555554545353525263
:101930005251515050504F4F4F4E4E4D4D4D4C4CBB
:101940004C4B4B4B4A4A4A49494948484847474704
:101950004746464645454544444444434343434241
:10196000424242414141002B9C4630D477002BD06B
:101970001CB54FEA370703B44FF010004FF01001C9
:10198000BAF1000F06D0BCF1000FDCBF40F0080038
:1019900040F008014FF000000FBCBDE810400BF113
:1019A000010BBBF1010F08BF5FEA170722BF12F15D
:1019B000010211F101014FF0004143F1000300F079
:1019C000004043EA00007047F9D35708D0E746EAE1
:1019D000064613F1400F4FEA16461FDD13F1200FA4
:1019E000DFBF16430A46002120335B42BED0C3F15D
:1019F000200746EA064602FA07F74FEA164646EA85
:101A00000706C3F1200722FA03F201FA07F721FAC9
:101A100003F14FF0000342EA0702A7E746EA020695
:101A200046EA06464FEA164646EA0106BCBF46EAC3
:101A30000646360C4FF000034FF000024FF0000155
:101A400094E72DE9804C9A46934670B491E83800AB
:101A500007C831EA400C48BF34EA430C03D5FFF70E
:101A6000E6FDFFF780FFF0BCBDE8008C2DE9804C5F
:101A70009A46934670B491E8380007C810F0804F3A
:101A800008BF13F0804F03D100F005F8FFF76BFF9C
:101A9000F0BCBDE8008C20F07F4780EA030023F013
:101AA0007F4C07EB0C03A3F57C5300F00040A3F13F
:101AB000FE0392F0000F00F0B38095F0000F00F0ED
:101AC00077802DE901494FEA11404FEA144621EA97
:101AD000004800FB06FC24EA064708FB06F607FB65
:101AE00008F800FB07F718EB06484CEB164C4FEADA
:101AF000124B18EB07484FEA15464CEB174022EA09
:101B00000B4E0BFB06FC25EA06470EFB06F607FB11
:101B10000EFE0BFB07F71EEB064E4CEB164C4FF080
:101B200000061EEB074E4CEB174B18EB0B0840F171
:101B3000000018EB0E0B58EB000840F100008F1A64
:101B40004FF000013CBFC943661B14BFB5EB040C4A
:101B500000213CBFC943F61B4FEA17444EEA8E0EE4
:101B600027EA04454FEA1C4704FB07622CEA074CAE
:101B700005FB07F70CFB05F604FB0CFC16EB074610
:101B800042EB174216EB0C4642EB1C421BEB0606DF
:101B900058EB0202414146EA9E0601D5BDE80189A3
:101BA000B619524141EB0101A3F10103BDE80189DE
:101BB0004FEA14454FEA114724EA054621EA074C4B
:101BC00005FB07F406FB07F70CFB06F105FB0CFC15
:101BD00011EB074144EB17444FEA124711EB0C415C
:101BE00044EB1C4422EA074C05FB07F206FB07F70F
:101BF0000CFB06F605FB0CFC16EB074642EB174206
:101C000016EB0C4642EB1C456A1854F1000148BF24
:101C10007047B619524141EB0101A3F1010370472E
:101C200095F0000F37D04FEA11424FEA144721EAEE
:101C3000024624EA074C02FB07F106FB07F70CFB00
:101C400006F402FB0CFC14EB074441EB17414FEA8E
:101C5000154714EB0C4441EB1C4125EA074C02FBF1
:101C600007F506FB07F70CFB06F602FB0CFC16EB70
:101C7000074645EB174516EB0C4645EB1C4212197F
:101C800051F1000148BF7047B619524141EB0101C3
:101C9000A3F1010370474FEA14454FEA114724EAC4
:101CA000054621EA074C05FB07F106FB07F70CFB8D
:101CB00006F24FF0000605FB0CFC12EB074241EB6D
:101CC000174112EB0C4251EB1C4148BF7047921870
:101CD00041EB0101A3F10103704770B504460025F3
:101CE0002946204603F066F800BF204670BD70B557
:101CF000044600252946204603F05CF800BF204634
:101D000070BD70B5044600252946204603F052F800
:101D100000BF204670BD21B1826842F0010282609E
:101D200003E0826822F001028260704721B182687C
:101D300042F48072826003E0826822F480728260E2
:101D40007047000010B504461248844208D10121B2
:101D5000401500F0AFFC0021601500F0ABFC17E06F
:101D60000D48844208D10121001500F0A3FC002198
:101D7000201500F09FFC0BE00848844208D10121A7
:101D8000C80300F097FC00214FF4004000F092FCE3
:101D900010BD00000024014000280140003C01402B
:101DA000014600208A6802F004020AB1012000E026
:101DB00000207047014600208A6802F008020AB13C
:101DC000012000E00020704730B5024600200023CB
:101DD00050680F4C20400D790C6844EA05242043DC
:101DE000506090680B4C2040D1E902542C434D794F
:101DF00044EA450420439060D06A20F470000C7CD3
:101E0000641EE4B2234340EA0350D06230BD0000B8
:101E1000FFFEF0FFFDF7F1FFF0B504460D46002090
:101E20000021092D11DDE068A5F10A0606EB460741
:101E3000072606FA07F18843A5F10A0606EB4606CF
:101E400003FA06F10843E0600CE0206905EB450762
:101E5000072606FA07F1884305EB450603FA06F163
:101E600008432061072A0FDA606B561E06EB8607CF
:101E70001F2606FA07F18843561E06EB860605FA6A
:101E800006F10843606322E00D2A0FDA206BD61FAB
:101E900006EB86071F2606FA07F18843D61F06EBD6
:101EA000860605FA06F10843206310E0E06AA2F115
:101EB0000D0606EB86071F2606FA07F18843A2F1F6
:101EC0000D0606EB860605FA06F10843E062F0BD52
:101ED000816841F008018160704721B1826842F455
:101EE000A002826003E0826822F4A0028260704750
:101EF000816841F004018160704700BFFEE721B9AD
:101F0000C26842F02002C26003E0026942F020028F
:101F10000261704710B5022000F05AF9012809D17A
:101F2000054908680021054A12689047022000F020
:101F30008FF810BD00BFFCE73802002070000020C1
:101F400010B5202000F044F9012808D10449486860
:101F50000021044A12689047202000F079F810BD53
:101F6000380200207000002010B54FF4007000F01F
:101F70002FF901280AD1064988680021054A12680C
:101F800090474FF4007000F063F810BD00BFFCE70D
:101F9000380200207000002010B54FF4005000F00F
:101FA00017F9012809D10549C8680021044A1268B7
:101FB00090474FF4005000F04BF810BD380200205D
:101FC0007000002010B54FF4003000F001F9012836
:101FD0000AD1064908690021054A126890474FF462
:101FE000003000F035F810BD00BFFCE738020020DB
:101FF0007000002010B54FF4001000F0E9F801283F
:1020000009D1054948690021044A126890474FF4F4
:10201000001000F01DF810BD3802002070000020F4
:1020200010B54FF0007000F0D3F801280AD106492E
:1020300088690021054A126890474FF0007000F04F
:1020400007F810BD00BFFCE7380200207000002038
:1020500000F0805111B10349086001E00249486075
:1020600070470000040402400000024021B10268F1
:1020700042F00102026004E002684FF6FE731A406B
:102080000260704701684FF6FE7211400160002146
:10209000016041608160C1604B49884208D14A4972
:1020A0000839496841F00F01474A083A51608AE00F
:1020B00045491431884208D143490839496841F0FB
:1020C000F001414A083A51607DE03F492831884299
:1020D00008D13D490839496841F470613A4A083AE3
:1020E000516070E038493C31884208D1364908399E
:1020F000496841F47041344A083A516063E032491A
:102100005031884208D130490839496841F470217A
:102110002D4A083A516056E02B496431884208D173
:1021200029490839496841F47001274A083A516041
:1021300049E025497831884208D12349083949685E
:1021400041F07061204A083A51603CE01F498842E2
:1021500006D1011F096841F00F01021F116032E032
:102160001A491431884208D11849091F096841F0F9
:10217000F001164A121F116025E0144928318842E7
:1021800008D11249091F096841F470610F4A121FF2
:10219000116018E00D493C31884208D10B49091FF4
:1021A000096841F47041094A121F11600BE00749A8
:1021B0005031884207D10549091F096841F470214F
:1021C000024A121F116070470800024008040240D2
:1021D00001460020002201F0805313B1054B1A681C
:1021E00001E0054B1A6802EA01030BB1012000E08F
:1021F0000020704700040240000002401AB103684A
:102200000B43036002E003688B430360704710B523
:102210000022026847F6F0739A430C6A8B682343E6
:102220000C6923434C6923438C692343CC692343C2
:102230004C6A23438C6A23431A430260CB68436091
:102240000B6883604B68C36010BD704710B50120F8
:1022500000F0FCF838B10449086804490968884767
:10226000012000F0EDF810BD900100205400002086
:1022700010B54FF4806000F0E9F840B12749886A52
:102280002749096888474FF4806000F0D9F84FF477
:10229000006000F0DBF840B12049C86A20490968B5
:1022A00088474FF4006000F0CBF84FF4805000F006
:1022B000CDF840B11949086B1949096888474FF4AE
:1022C000805000F0BDF84FF4005000F0BFF840B16E
:1022D0001249486B1249096888474FF4005000F0D2
:1022E000AFF84FF4804000F0B1F840B10B49886B73
:1022F0000B49096888474FF4804000F0A1F84FF47B
:10230000004000F0A3F840B10449C86B04490968D3
:1023100088474FF4004000F093F810BD9001002072
:102320005400002010B5022000F090F838B10449A4
:102330004868044909688847022000F081F810BD08
:10234000900100205400002010B5042000F07EF819
:1023500038B104498868044909688847042000F0B6
:102360006FF810BD900100205400002010B5082027
:1023700000F06CF838B10449C86804490968884716
:10238000082000F05DF810BD9001002054000020EE
:1023900010B5102000F05AF838B104490869044912
:1023A00009688847102000F04BF810BD900100200C
:1023B0005400002010B5202000F048F838B11E4924
:1023C00048691E4909688847202000F039F84020F4
:1023D00000F03CF838B118498869184909688847FD
:1023E000402000F02DF8802000F030F838B112497C
:1023F000C869124909688847802000F021F84FF425
:10240000807000F023F840B10B49086A0B49096855
:1024100088474FF4807000F013F84FF4007000F01C
:1024200015F840B10449486A0449096888474FF4DF
:10243000007000F005F810BD90010020540000204D
:102440000149086070470000140401400146002063
:102450000022074B1B6803EA0102054B14331B687B
:102460000B4013B10AB1012000E0002070470000CA
:10247000000401402DE9F04102460025002600201D
:1024800000230024002791F803C00CF00F0591F8F9
:1024900003C00CF0100CBCF1000F03D091F802C087
:1024A0004CEA050591F800C0BCF1000F31D014686A
:1024B00000202BE04FF0010C0CFA00F3B1F800C043
:1024C0000CEA03069E4220D183004FF00F0C0CFA59
:1024D00003F7BC4305FA03FC4CEA040491F803C07B
:1024E000BCF1280F06D14FF0010C0CFA00FCC2F829
:1024F00014C00AE091F803C0BCF1480F05D14FF0B9
:10250000010C0CFA00FCC2F810C0401C0828D1D302
:102510001460B1F800C0BCF1FF0F34DD5468002036
:102520002EE000F1080C4FF0010808FA0CF3B1F8A6
:1025300000C00CEA03069E4221D183004FF00F0C2D
:102540000CFA03F7BC4305FA03FC4CEA040491F8C7
:1025500003C0BCF1280F05D100F1080C08FA0CF8F3
:10256000C2F8148091F803C0BCF1480F07D100F104
:10257000080C4FF0010808FA0CF8C2F81080401C53
:102580000828CED35460BDE8F0810000F0B50A46BB
:10259000002300240021002500F00046B6F1004F82
:1025A00002D11D4EF16901E01B4E7168C0F3034575
:1025B00083B200F44016B6F5401F08D121F07061D7
:1025C000154E766826F07066134F7E6012E000F4B8
:1025D0008016B6F5801F06D1032606FA05F4A1433E
:1025E00041F0706106E0460D360103FA06F6B1438C
:1025F00041F0706122B1460D360103FA06F631430F
:1026000000F00046B6F1004F02D1034EF16101E047
:10261000014E7160F0BD00000000014000BFFEE708
:1026200000BFFEE77047000002490143024A116003
:10263000704700000000FA050CED00E001460020A4
:10264000034A506820F4404008435060704700003F
:102650000010024029B1064A52690243044B5A61F4
:1026600004E0034A52698243014B5A6170470000FB
:102670000010024029B1064AD2690243044BDA61D4
:1026800004E0034AD2698243014BDA6170470000DB
:102690000010024029B1064A92690243044B9A6134
:1026A00004E0034A92698243014B9A61704700003B
:1026B0000010024029B1064AD2680243044BDA6096
:1026C00004E0034AD2688243014BDA60704700009D
:1026D0000010024030B500210022002400232D4DBF
:1026E0006D6805F00C0121B1042905D0082923D11A
:1026F00005E0294D056022E0274D05601FE0254DCE
:102700006D6805F47012234D6D6805F48034022560
:1027100005EB92421CB9214D554305600BE01D4D60
:102720006D6805F400351DB11C4D5543056002E090
:10273000194D5543056002E0174D056000BF00BF0D
:10274000144D6D6805F0F0010909154D6B5C0568C5
:10275000DD4045600F4D6D6805F4E061090A104DDC
:102760006B5C4568DD4085600A4D6D6805F460511D
:10277000C90A0B4D6B5C4568DD40C560054D6D6851
:1027800005F44041890B074D6B5CC568B5FBF3F55B
:10279000056130BD0010024000127A0000093D00C2
:1027A0000000002010000020024909888143014AEE
:1027B000118070470428004001460020064A128814
:1027C0000A40D0B2044A121F12880A4012B108B15E
:1027D000012000E0002070470428004010B50120CF
:1027E000FFF7EAFF40B1002111480068114A126862
:1027F00090470120FFF7D8FF0220FFF7DDFF40B12F
:1028000001210B4800680B4A126890470220FFF72D
:10281000CBFF0420FFF7D0FF40B10221044800683D
:10282000044A126890470420FFF7BEFF10BD000065
:10283000580000205C00002010B50121054800F080
:102840000FF8012805D1044908680021034A1268DD
:10285000904710BD003001401802002060000020A9
:102860000246002013890B400BB1012000E000203C
:10287000704710B500F002F810BD00000CB5002044
:10288000019000903348006840F48030314908607E
:1028900000BF3048006800F4003000900198401CF0
:1028A0000190009818B90198B0F5A06FF1D12948AE
:1028B000006800F4003010B10120009001E0002019
:1028C00000900098012843D12348006840F0100090
:1028D000214908600846006820F0030008600846A7
:1028E000006840F0020008601A48406819494860D2
:1028F0000846406848600846406840F48060486088
:102900000846406820F47C1048600846406840F45F
:10291000E81048600846006840F08070086000BF1A
:102920000C48006800F000700028F9D009484068A1
:1029300020F00300074948600846406840F0020064
:10294000486000BF0348406800F00C000828F9D137
:102950000CBD00000010024000200240042808D1F5
:102960004FF0E021096941F004014FF0E0221161CC
:1029700007E04FF0E021096921F004014FF0E02267
:102980001161704710B50E4802684068521C40F152
:1029900000000B490A6048600A4802880023086862
:1029A0004968FDF70BFD00214A404B401A4305D111
:1029B0000548006810B104490868804710BD000050
:1029C00080000020920000208C00002010B5002123
:1029D00000200022214B5B6803F00C0121B1042987
:1029E00006D0082928D107E01D4B1E4C236027E0A4
:1029F0001B4B1C4C236023E0184B5B6803F47010E6
:102A0000164B5B6803F48032022303EB904022B93B
:102A1000154B4343134C23600DE0104B5B6803F4EC
:102A2000003323B1104B43430E4C236003E00C4BA7
:102A300043430C4C236003E0094B0A4C236000BF66
:102A400000BF064B5B68C3F30313084CE15C054B06
:102A50001B68CB40034C236010BD000000100240F7
:102A600000127A009400002000093D009800002028
:102A700010B51348006840F001001149086008468D
:102A80004068104908400E494860084600680E49F1
:102A900008400B4908600846006820F48020086060
:102AA0000846406820F4FE0048604FF41F0088602C
:102AB000FFF7DFFE4FF000600449086010BD000022
:102AC000001002400000FFF8FFFFF6FE08ED00E0F6
:102AD00010B50121224800F096F901280BD12148B8
:102AE0000088401C1F490880002002F029F90121BC
:102AF0001B4800F085F90221194800F084F90128EB
:102B000006D1072002F01CF90221154800F078F9DF
:102B10000421134800F077F9012806D1082002F0BB
:102B20000FF904210E4800F06BF908210C4800F061
:102B30006AF9012806D1092002F002F908210848A3
:102B400000F05EF91021064800F05DF9012806D179
:102B50000A2002F0F5F81021014800F051F910BDEB
:102B6000002C01407400002010B50121880700F0FE
:102B70004AF901280BD120480088401C1E490880D2
:102B8000012002F0DDF80121880700F039F9022167
:102B9000480700F038F9012806D10B2002F0D0F8E0
:102BA0000221480700F02CF90421080700F02BF956
:102BB000012806D10C2002F0C3F80421080700F018
:102BC0001FF90821C80600F01EF9012806D10D20C2
:102BD00002F0B6F80821C80600F012F910218806A4
:102BE00000F011F9012806D10E2002F0A9F81021F9
:102BF000880600F005F910BD7600002010B501210F
:102C0000224800F000F901280BD121480088401C1F
:102C10001F490880022002F093F801211B4800F0B0
:102C2000EFF80221194800F0EEF8012806D10F2034
:102C300002F086F80221480700F0E2F80421134868
:102C400000F0E1F8012806D1102002F079F8042103
:102C50000E4800F0D5F808210C4800F0D4F80128FF
:102C600006D1112002F06CF80821084800F0C8F8DD
:102C70001021064800F0C7F8012806D1122002F002
:102C80005FF81021014800F0BBF810BD00040040BF
:102C90007800002010B50121224800F0B4F8012886
:102CA0000BD121480088401C1F490880032002F0F6
:102CB00047F801211B4800F0A3F80221194800F051
:102CC000A2F8012806D1132002F03AF80221154893
:102CD00000F096F80421134800F095F8012806D179
:102CE000142002F02DF804210E4800F089F8082184
:102CF0000C4800F088F8012806D1152002F020F8D1
:102D00000821084800F07CF81021064800F07BF804
:102D1000012806D1162002F013F81021014800F016
:102D20006FF810BD000800407A00002010B50121A6
:102D3000204800F068F8012806D1042002F000F8CD
:102D400001211C4800F05CF802211A4800F05BF8F1
:102D5000012806D1172001F0F3FF0221154800F0E9
:102D60004FF80421134800F04EF8012806D118202E
:102D700001F0E6FF04210F4800F042F808210D4859
:102D800000F041F8012806D1192001F0D9FF0821EF
:102D9000084800F035F81021064800F034F8012802
:102DA00006D11A2001F0CCFF1021024800F028F8CB
:102DB00010BD0000000C004010B50121064800F0D5
:102DC00022F8012806D1052001F0BAFF01210248AE
:102DD00000F016F810BD00000010004010B50121F1
:102DE000064800F010F8012806D1062001F0A8FFDF
:102DF0000121024800F004F810BD0000001400405A
:102E0000CA430282704730B50246002000230024E6
:102E1000158A05EA0103958905EA010413B10CB18D
:102E2000012000E0002030BD10B540F225511348CC
:102E300000F02EF901280AD11149C8680021114A71
:102E40001268904740F225510C4800F0F0F840F22B
:102E500026610A4800F01CF901280DD100200A491A
:102E6000C8700749C8680121064A1268904740F2B5
:102E70002661024800F0DBF810BD0000004C004065
:102E8000240200206C0000206400002010B540F2F5
:102E90002551134800F0FCF801280AD111490869AE
:102EA0000021114A1268904740F225510C4800F069
:102EB000BEF840F226610A4800F0EAF801280DD178
:102EC00000200A490871074908690121064A126869
:102ED000904740F22661024800F0A9F810BD0000BA
:102EE00000500040240200206C00002064000020FC
:102EF00010B540F22551134800F0CAF801280AD154
:102F0000114908680021114A1268904740F2255182
:102F10000C4800F08CF840F226610A4800F0B8F83E
:102F200001280DD100200A490870074908680121CD
:102F3000064A1268904740F22661024800F077F88E
:102F400010BD000000380140240200206C00002069
:102F50006400002010B540F22551134800F098F8A5
:102F600001280AD1114948680021114A1268904786
:102F700040F225510C4800F05AF840F226610A4808
:102F800000F086F801280DD100200A494870074951
:102F900048680121064A1268904740F226610248BB
:102FA00000F045F810BD000000440040240200205D
:102FB0006C0000206400002010B540F22551134839
:102FC00000F066F801280AD1114988680021114AE9
:102FD0001268904740F225510C4800F028F840F262
:102FE00026610A4800F054F801280DD100200A4952
:102FF0008870074988680121064A1268904740F2A4
:103000002661024800F013F810BD0000004800409F
:10301000240200206C0000206400002001F40072F3
:10302000B2F5007F00D100BFCA430280704710B5DF
:103030000022002340F66A14A14200D100BF0A1208
:1030400001249440A3B2DC43048010BD21B18289E5
:1030500042F40052828104E082894DF6FF731A40E7
:10306000828170471AB1838A0B43838202E0838A8C
:103070008B438382704702460020B1F5007F00D168
:1030800000BF13880B400BB1012000E00020704707
:1030900070B50246002400230025002040F66A1681
:1030A000B14200D100BFC1F3421501F01F03012658
:1030B00006FA03F3012D02D19689334006E0022D72
:1030C00002D1168A334001E0968A33400C12012661
:1030D00006FA04F41688344013B10CB1012000E064
:1030E000002070BDF0B50346002400260025002016
:1030F00040F66A17B94200D100BF1846C1F3421426
:1031000001F01F06012707FA06F5012C01D10C304A
:1031100004E0022C01D1103000E014301AB107682D
:103120002F43076002E00768AF430760F0BD00006F
:103130002DE9F04786B005460E460024A24600BFA2
:10314000A1460027B08900B100BF2F462C8A4CF65B
:10315000FF700440F08804432C82AC894EF6F310D3
:103160000440B08831890843718908430443AC8125
:10317000AC8A4FF6FF400440B0890443AC8201A8FA
:10318000FFF7A8FA1F48874202D1DDF810A001E03E
:10319000DDF80CA0A88900F4004040B10AEBCA0099
:1031A00000EB0A1031684900B0FBF1F807E00AEBC8
:1031B000CA0000EB0A1031688900B0FBF1F8642006
:1031C000B8FBF0F004012009642101FB1089A889F3
:1031D00000F4004040B1322000EBC900B0FBF1F038
:1031E00000F00700044308E0322000EB09106421DE
:1031F000B0FBF1F000F00F0004432C8106B0BDE8F5
:10320000F087000000380140C1F308028280704757
:1032100010B5054800680549096888470021044839
:10322000FEF76DFE10BD00004C0000205000002095
:103230000064004000BFFEE702460B4600210CE0A0
:10324000084850F83100904206D1064800EBC10012
:10325000001DC05C40B27047491C3029F0D30020EB
:10326000F9E700003C51000810B504462046FDF780
:103270005FFA10BD10B51B4800F0B2FAC4B21A488C
:10328000008800F4004058BB1748008800F48040D4
:1032900060B10A2C03D000201349088020E01248B6
:1032A000008840F400401049088019E00D2C06D138
:1032B0000D48008840F480400B49088010E00A481F
:1032C0000088C0F30D0009490C5407480088401CD1
:1032D0000549088008460088C72801DD00200880CD
:1032E00010BD000004070020A8000020D008002026
:1032F00013201C4908703020487008461AA109683C
:1033000081621A480168174841621848001D016827
:10331000144801621548083000681249C861134812
:103320000838008848800021114A1160516000204F
:103330004FF0E021886100BF0A484068401C0949FD
:1033400048600B48036840685A1E70F10000F3D3D0
:10335000084640684FF47A7148434000014948608C
:1033600070470000D000002053540000E8F7FF1F12
:103370008000002000B58BB00F48FEF783FE0F4899
:1033800000900F4801900020029010200390002030
:103390000490802005904000069080000790202037
:1033A00008900002099000200A9069460248FEF742
:1033B0002EFF0BB000BD0000080002404C2401406D
:1033C0007001002000B585B04848FEF7BBFC002026
:1033D000009001208DF804008DF805004FF4602066
:1033E00002900020039010208DF8100069463F489D
:1033F000FEF7EAFC0323012200213C48FEF70CFD06
:103400000323022201213948FEF706FD03231A4651
:1034100002213648FEF700FD0323042219463348F3
:10342000FEF7FAFC0323052204213048FEF7F4FCE2
:103430000323062205212D48FEF7EEFC0323072275
:1034400006212A48FEF7E8FC032308220721274823
:10345000FEF7E2FC0323092208212448FEF7DCFCE6
:1034600003230A2209212148FEF7D6FC03230B225D
:103470000A211E48FEF7D0FC03230C220B211B4817
:10348000FEF7CAFC03230D220C211848FEF7C4FCEA
:1034900003230E220D211548FEF7BEFC03230F2245
:1034A0000E211248FEF7B8FC032310220F210F480B
:1034B000FEF7B2FC01210D48FEF738FC01210B4854
:1034C000FEF729FC0948FEF703FD00BF0748FEF799
:1034D00071FC0028FAD10548FEF70AFD00BF034839
:1034E000FEF75EFC0028FAD105B000BD00240140C3
:1034F00010B586B00446FFF769FA01A8FFF7EAF8AD
:10350000019860600298A0600498E06003982061D0
:1035100006B010BD10B501F0D7F801224FF4E1312B
:10352000084800F063F900220749064800F0DEFA77
:1035300001220021034800F03FFB04A1014800F0F4
:103540003FFC10BD04070020753200082066697832
:103550007475726520696E6974206F6B3E3E210040
:1035600010B50446FCF792FEB0FBF4F104FB110029
:1035700010BD000010B501214802FFF78BF84FF491
:103580000040FFF75BF801210846FFF763F8FFF7FB
:1035900019FFFFF7EFFE01210348FEF79EFC012112
:1035A0000248FEF763FD10BD002401400800024000
:1035B0002DE9F04104460E46174604F110054FF080
:1035C00000084146284601F0F5FB00BFA5F11004B4
:1035D0006660A7602046BDE8F081000010B5044693
:1035E0001D4A2068811A904227D010DC1B4AA0EBAC
:1035F000020190421ED005DC19490844C0B11428CC
:1036000028D116E0142916D0282923D114E0B1F5C9
:103610006C7F19D005DC142910D0B1F5677F19D162
:1036200011E0B1F5717F10D0B1F5767F12D10DE0C8
:1036300000BF00BF00BF00BF00BF00BF01210846A0
:10364000FFF708F806E000BF00BF00BF012102201D
:10365000FFF700F800BF10BD6C00024030000240D0
:10366000F8FFFDBF2DE9F04105460E462F4606EB5B
:103670004601381D00EBC104606920B9206810B113
:103680002068804709E0606930B1206820B1211DC1
:1036900062692068904700E000BFBDE8F08170B526
:1036A00004460D4629462068FEF7B1FD70BD2DE9A0
:1036B000F04104460D4616461F4600231A46194699
:1036C000206801F0CDFA25B10021206801F0ACFAA4
:1036D00003E00021206801F089FABDE8F08110B50F
:1036E00004462068FEF7CEFC10BD10B5044601214B
:1036F0002068FEF7BBFC10BD70B504460D461646AB
:103700002DB9324602212068FEF778FD0EE0012D2A
:1037100005D1324608212068FEF770FD06E0022D33
:1037200004D1324604212068FEF768FD70BD000018
:1037300070B504460D46032318220B49201D00F0E6
:10374000E7FC041F25600948281A802804D8074888
:10375000281A1421B0FBF1F6F0B22246044900F019
:10376000DDFE204670BD0000031D00080800024079
:10377000653600082DE9F04105460E462F4606EB5A
:10378000460107F1180000EBC104606920B9206808
:1037900010B12068804709E0606930B1206820B12D
:1037A000211D62692068904700E000BFBDE8F081FC
:1037B0002DE9F04104460D4616461F4600231A46E1
:1037C0001946A06801F04CFA25B10021A06801F06B
:1037D0002BFA03E00021A06801F008FABDE8F081AF
:1037E000014688688088C0F3080070477CB50546AC
:1037F0000E4614464FF07E50002308223146CDE994
:103800000004284600F002F87CBD00002DE9FF5FAF
:1038100004460E4691469A46DDF838B00121A0686C
:1038200001F046FA704AA068811A904219D006DC6D
:103830006E49084468B1B0F5806F16D10DE0B1F55E
:10384000806F10D0B1F56C4F0FD1694860610025D1
:103850000BE068486061012507E067486061022568
:1038600003E0032501E0042500BF00BF22466349B1
:10387000284601F04DFA0096B9F1080F03D0B9F1CE
:10388000090F09D103E00020ADF8040008E04FF46F
:103890008050ADF8040003E00020ADF8040000BF44
:1038A00000BFBAF1000F06D0BAF1010F07D0BAF18C
:1038B000020F0ED108E00020ADF808000DE04FF433
:1038C0008060ADF8080008E04FF4C060ADF8080073
:1038D00003E00020ADF8080000BF00BF584601F02B
:1038E00009FB07460022464B01F074FA04D14FF45D
:1038F0008050ADF8060021E04FF07E51584601F0AF
:1039000031FB03D10020ADF8060017E0584601F066
:10391000F1FA074600223B4B01F05CFA04D14FF468
:103920004050ADF8060009E04FF08041584601F0E4
:1039300019FB03D14FF40050ADF806000020ADF89C
:103940000C000C20ADF80A006946A068FFF7F0FBF8
:103950002D49A068884208D024494942A06888427D
:1039600003D02A49A06888421FD1207C01281CD19D
:1039700001228021A068FFF775FB6069FFF72EFE2A
:1039800000231A4619466069FFF791FE002211468E
:103990006069FFF7B1FE002201216069FFF7ACFE0C
:1039A000002202216069FFF7A7FE0121A068FFF74E
:1039B0004DFB00231A4601212046FFF7F9FE0022A5
:1039C0001146204600F0F8F800220121204600F0C0
:1039D000F3F840F22661A068FFF729FB4021A068B8
:1039E000FFF71CFBBDE8FF9F004C004000BCFFBF81
:1039F000380300201C040020A002002075370008B6
:103A00000000E03F0000F83F00380140004800405F
:103A100070B504460D461646204600F0EBF82849DE
:103A2000A068884201D1012000E00020254AA16859
:103A3000914201D1012100E000210843224AA168FE
:103A4000914201D1012100E00021084320B3207CF4
:103A5000012821D1204600F0CDF8E06810B1E068DF
:103A600000F0C6FD204600F051F8304600F064FE3C
:103A7000E060E06808B9002070BD002004E015F89F
:103A8000011BE2681154401CB042F8D3B2B2204688
:103A9000E16800F06BF810E00BE000BF8021A06847
:103AA000FFF7E9FA0028F9D015F8011BA068FFF725
:103AB000ABFB301EA6F10106EFD13046DCE700007B
:103AC00000380140004400400048004070B5044602
:103AD0000D4600BF8021A068FFF7CDFA0028F9D07D
:103AE0002946A068FFF790FB012070BD70B5044621
:103AF0000D46164645B106EB460204F1180101EBEE
:103B0000C200294601F056F970BD0000144B8168CF
:103B1000CA1A994219D006DC124A114469B1B1F5AA
:103B2000806F1AD10DE0B2F5806F12D0B2F56C4FF4
:103B300013D101210C4A11700FE001210A4A517082
:103B40000BE00121084A917007E00121064AD1707B
:103B500003E00121044A117100BF00BF704700005B
:103B6000004C004000BCFFBF6400002070B58CB06A
:103B700004460E4615466069FFF7B1FDA068001DBA
:103B8000019002961020039004950020059080205B
:103B9000069000200790089009904FF400500A907A
:103BA00000200B9001A96069FFF779FD6069FFF7BC
:103BB0009CFD28460CB070BD70B504460D461646F7
:103BC0002DB9324640F22551A068FFF78BFA012D3E
:103BD0000ED140F22661A068FFF729FA4021A068C3
:103BE000FFF71CFA324640F22661A068FFF77AFA26
:103BF00070BD000010B50446424AA068811A904288
:103C00004ED006DC40490844F0B1B0F5806F77D162
:103C100031E0B1F5806F58D0B1F56C4F70D10DE047
:103C20003A48008800F0400040B100203849087050
:103C300040F226613548FFF7FAF903E0344800788E
:103C40000128EDD000BF5BE00FE02F484042008824
:103C500000F0400048B100202D49487040F2266134
:103C600029484042FFF7E3F903E02948407801285A
:103C7000EBD000BF44E00DE02648008800F0400093
:103C800040B100202249887040F226612148FFF7A8
:103C9000CEF903E01E4880780128EDD000BF2FE068
:103CA0000DE01848008800F0400040B1002018499D
:103CB000C87040F226611348FFF7B9F903E01448D1
:103CC000C0780128EDD000BF1AE013E01248008848
:103CD00000F0400070B100200D4908710F490869DB
:103CE00001210F4A1268904740F226610A48FFF707
:103CF0009EF903E0064800790128E7D000BF00BF25
:103D000000BF10BD004C004000BCFFBF00380140A8
:103D100064000020004800400050004024020020C1
:103D20006C0000202DE9F04104460F4615461E4662
:103D300020460E49216000BF04460D482060022342
:103D400018220C4904F1180000F0E2F9A0F118045F
:103D5000A7602868602102682846904730684021A3
:103D60000268304690472046BDE8F081585400086C
:103D700048540008EF1C000870B504460D4616466E
:103D800020683246294643682046984770BD2DE991
:103D9000F04105460C461646002709E014F8011BC1
:103DA000286802682846904708B17F1C00E003E0BD
:103DB000301EA6F10106F1D100BF3846BDE8F08102
:103DC0000FB4F8B507460024402508A8009000BFAE
:103DD000284600F0B1FC06461EB90020F8BC5DF88C
:103DE00014FB29463046009B079AFCF75FFB04460C
:103DF000601C08B1AC4205D340354FF0FF3430466B
:103E000000F0F6FB601C0028E2D000200090224663
:103E100031463846FFF7B0FF304600F0E9FB204658
:103E2000DCE72DE9F04104460E4620460021016002
:103E30004160C16000BF044604F1100001604160B0
:103E4000C16000BFA0F1100404F1580500273946F5
:103E5000284600F0AFFF00BFA5F15804A66400207B
:103E600084F821002025680000F066FCE060A56071
:103E7000E06800B100E000BF2025284600F05CFCAF
:103E8000E061A561E06900B100E000BF2046BDE847
:103E9000F08170B5044604F11005E86800F0A8FB55
:103EA00000BFA5F110042546E86800F0A1FB00BFA3
:103EB0002C46204670BD000010B5054C046000BFC4
:103EC000044C0460002404754160C260836010BD2E
:103ED0009C530008685400082DE9F04104460F4641
:103EE00015461E46DDF818800D48206000BF0D48BD
:103EF000206000202073A76028686021026828469F
:103F0000904730686021026830469047D8F800003A
:103F100060210268404690472046BDE8F0810000DD
:103F2000EC530008B8540008034B036000BF034B78
:103F300003608160426070479C530008EC540008A5
:103F400010B5044C046000BF034C04604160C260C3
:103F5000836010BDEC5300083C55000838B504469A
:103F60000D460121A06800F0A3FE402D29D011DCF0
:103F7000202D33D007DC85B3102D3CD0112D3ED041
:103F8000122D75D13FE0212D2CD0222D2ED0302D99
:103F90006ED112E0522D4AD008DC412D15D0422DB1
:103FA00017D0502D33D0512D62D138E0602D46D03E
:103FB000612D4CD0622D5BD151E000208DF80300C3
:103FC0005AE004208DF8030056E028208DF8030005
:103FD00052E048208DF803004EE00BE014208DF8ED
:103FE000030049E014208DF8030045E014208DF80B
:103FF000030041E000BF10208DF803003CE01020DA
:104000008DF8030038E010208DF8030034E0012122
:104010000846FEF73FFB1C208DF803002CE0012131
:104020000846FEF737FB1C208DF8030024E0012131
:104030000846FEF72FFB1C208DF803001CE0012131
:104040000846FEF727FB18208DF8030014E0012135
:104050000846FEF71FFB18208DF803000CE0012135
:104060000846FEF717FB18208DF8030004E0FFE771
:1040700004208DF8030000BF00BFA089ADF8000048
:1040800003208DF802006946A068FEF7F3F938BDF9
:1040900070B50B460E49016000BF0E490160836098
:1040A00082814FF48031591A0226C6EB9121CCB29D
:1040B000002106E086890E4116B94E1EF5B202E0D7
:1040C000491C0F29F6DD05EB0411017170BD0000DC
:1040D0002054000870550008EFF3108000F0010034
:1040E00072B6704762B67047490050EAC12018BFE7
:1040F00004204A0D18BF40F0010040F2FF72B2EBFD
:10410000515F08BF40F00200012808BF052070473A
:104110002DE9F0411C4617460E00804607D00546A3
:1041200002E02846B0473D442046641EF9D240468E
:10413000BDE8F0810020FCF7FEBF000008B50122B9
:104140008B498C48FFF7A4FF022289498A48FFF770
:104150009FFF042286498948FFF79AFF0822844975
:104160008748FFF795FF102281498648FFF790FFA7
:1041700020227F498448FFF78BFF40227C498348F7
:10418000FFF786FF80227A498148FFF781FF4FF4CD
:10419000807277497F48FFF77BFF4FF400727449C4
:1041A0007D48FFF775FF4FF4806271497B48FFF748
:1041B0006FFF4FF400626E497948FFF769FF4FF4D3
:1041C00080526B497748FFF763FF4FF4005268490C
:1041D0007548FFF75DFF4FF4804265497348FFF76C
:1041E00057FF4FF4004262497148FFF751FF012227
:1041F00070497148FFF74CFF02226E496F48FFF784
:1042000047FF04226B496E48FFF742FF08226949C5
:104210006C48FFF73DFF102266496B48FFF738FFF7
:10422000202264496948FFF733FF4022614968480A
:10423000FFF72EFF80225F496648FFF729FF4FF402
:1042400080725C496448FFF723FF4FF400725949BC
:104250006248FFF71DFF4FF4806256496048FFF740
:1042600017FF4FF4006253495E48FFF711FF4FF408
:10427000805250495C48FFF70BFF4FF400524D4904
:104280005A48FFF705FF4FF480424A495848FFF764
:10429000FFFE4FF4004247495648FFF7F9FE4FF43E
:1042A000005255495548FFF7F3FE4FF480425249FA
:1042B0005348FFF7EDFE4FF400424F495148FFF7D6
:1042C000E7FE364B344A50495048FFF72BFD2C4B44
:1042D0002A4A4F494F48FFF725FD424B404A4E4975
:1042E0004E48FFF71FFD2A48284B274A4C490090AB
:1042F0004C48FFF7F1FD3F483D4B3C4A4A4900908E
:104300004A48FFF7E9FD31482F4B2E4A48490090B3
:104310004848FFF7E1FD1E4B1C4A1B494648FFF782
:104320000FFE344B324A31494448FFF709FE294B0E
:10433000274A43494348FFF7BFFD2A4B284A4249D1
:104340004248FFF7B9FD104A0E494148FFF7ECFD1E
:10435000204A1F493F48FFF7E7FD224A20493E48CF
:10436000FFF7E2FD1D4A1C493C48FFF721F908BD53
:1043700000080140D4040020E4040020F4040020DC
:104380000405002014050020240500203405002029
:104390004405002054050020640500207405002019
:1043A0008405002094050020A4050020B405002009
:1043B000C4050020000C0140D4050020E4050020C5
:1043C000F405002004060020140600202406002026
:1043D0003406002044060020540600206406002015
:1043E000740600208406002094060020A406002005
:1043F000B4060020C406002000100140D4060020AE
:10440000E4060020F40600200038014004070020E4
:10441000004400404C070020004800409407002062
:1044200000300140DC07002000380040EC0700208D
:10443000003C0040FC0700200C080020240800205D
:10444000005400403C080020005800405408002060
:104450006C0800208008002094080020A808002094
:1044600010B5044C0323182203492046FFF750FEE1
:10447000044610BDD0010020DB1C000810B5054922
:104480000548FFF7CEFC0446044A0549FCF76EF9DF
:1044900010BD0000000800400001002000000008DE
:1044A000933E000810B511491148FFF741F90F4933
:1044B00014311048FFF73CF90C4928310E48FFF73A
:1044C00037F90A493C310D48FFF732F907495031B5
:1044D0000B48FFF72DF9054964310A48FFF728F921
:1044E000024978310848FFF723F910BD080002405F
:1044F00054020020A0020020EC020020380300201B
:1045000084030020D00300201C04002030380A2837
:1045100001D201207047002070470000024B196053
:10452000024B43F820207047700000203802002022
:1045300070B50546284600F0FFF806460EB9002083
:1045400070BD2946304600F007F8044614B93046DD
:1045500000F04EF82046F3E770B505460E461020F1
:10456000FBF7D6FE04460CB9002070BD25606660DE
:104570000020E060A0602046F7E72DE9F041044606
:104580000F461546D4E90101401AE1680844A842E3
:1045900001D9284604E0D4E90101401AE168084441
:1045A0000546D4E90110491E08406168081AA8426E
:1045B00001D9284605E0D4E90110491E0840616888
:1045C000081A0646D4E90121521E114022688818B3
:1045D0003246394600F034F9AA1BB919206800F0B8
:1045E0002FF9A0682844A0602846BDE8F0810000AB
:1045F00070B506463546B6B1083D2C460A49606896
:104600000968084078B1206868B907496068096896
:104610008843606005496068096808440349086088
:10462000204600F057F970BD28000020240000202B
:1046300070B503460C46DD1D25F00700A4F1080502
:1046400025F00702102A08D9A2F11005854204D3EB
:10465000151A103D144E356000E070BD134D2860F2
:104660000025124E7560124D2A600025104E3668E6
:1046700075600F4E3668356001460D4D2D680D6032
:10468000094D2D684D600B4E4D6835600A4E4D68E2
:1046900035604FF00045094E3560094D2B60094DDE
:1046A0002C6000BFD9E700001C000020AC000020F7
:1046B000C40000202000002024000020280000204A
:1046C000140000201800002010B50D490D48FFF718
:1046D000AFFF0D480D4908600D480E4908600E48AF
:1046E0000E4908600E480F4908600F480F490860DE
:1046F0000F481049086000F0CFF900F0E1F810BD54
:1047000000300020E0100020E540000830000020CC
:10471000D940000834000020394A00084400002035
:10472000734A000848000020594B00083C00002054
:10473000E14B000840000020F8B50446002772B69F
:104740003248006818B932493248FFF771FF3248E1
:1047500000682040002852D11CB10834E01D20F030
:104760000704002C4AD02D480068844246D82C4DBE
:1047700028460068009003E0009D009800680090C3
:1047800000984068A04203D2009800680028F3D146
:10479000684624490968884205D0286800F108075E
:1047A00000980068286000984068001B10280AD90B
:1047B0000098061900984068001B706000984460DB
:1047C000304600F087F80098406814490968081AD4
:1047D000124908600846006813490968884203D2F4
:1047E0000E48006810490860009840680A49096846
:1047F00008430099486000200099086062B617B924
:104800000AA000F02BF83846F8BD0000C4000020D4
:1048100000300020E01000202800002024000020AC
:10482000AC0000201C0000202000002062616420F9
:104830006D656D206D616C6C6F632121210D0A0027
:1048400070B503460C4603E014F8015B03F8015B06
:10485000151EA2F10102F7D170BD00000FB4F8B52A
:104860000024202507A8009000BF2846FFF764FF1A
:10487000064616B9F8BC5DF814FB29463046009B85
:10488000069AFBF713FE0446601C08B1AC4205D340
:1048900020354FF0FF343046FFF7AAFE601C002899
:1048A000E3D0002000902246314604480068FFF71C
:1048B00064FE3046FFF79CFE00BFDBE72C000020C3
:1048C00010B54FF48070FFF733FE0149086010BD4A
:1048D0002C00002010B50146164800E0006803686F
:1048E0008B42FBD30246436813448B4204D1436896
:1048F0004C682344436001460A464B6813440468ED
:10490000A34211D10C4C03682468A34208D04B6821
:104910000468646823444B6003681B680B6005E00F
:10492000054B1B680B6001E003680B60884200D0F8
:10493000016010BDAC000020C400002008B5FEF7E7
:10494000E9FD4FE02848008800F40040002849D0E5
:10495000254804780020254908552548FFF730FAF6
:1049600024A12348FFF72CFA2048007820B921A180
:104970001F48FFF725FA35E01C491FA0FBF70EFF83
:1049800038B91FA11A48FFF71BFA00201649088002
:1049900028E0164921A0FBF701FFC0B94FF4FA60E7
:1049A000FEF7DEFD05464FF4FA60FEF7D9FD064638
:1049B0006420FEF7D5FD074633463A461A490C48AF
:1049C0000095FFF7FDF90020074908800AE017A1CC
:1049D0000748FFF7F5F917A10548FFF7F1F900209F
:1049E00001490880AEE70000A8000020D0080020A0
:1049F000040700200A0000005B534E5D0000000029
:104A00005B534E5D3C736E2D47464838313336302C
:104A10003031414A4A4E5630383E0A005B424154DA
:104A20004D414E5D00000000905500083C4E413E57
:104A30000A0000003E3E00002DE9F04104460D460C
:104A400000F08AF84FF47A734FF0000CA4FB0328AF
:104A500005FB038304FB0C3382185941D61E61EB1E
:104A60000C0700BF00F078F8801BB941FAD3BDE80D
:104A7000F0812DE9F04104460D4600F06DF8021971
:104A80006941D61E61F1000700BF00F065F8801B88
:104A9000B941FAD3BDE8F08170B52848FEF728FD8A
:104AA00026480838C0684FF47A72B0FBF2F1B1F1D1
:104AB000807F00D31DE021F07F40401E4FF0E022B8
:104AC000506150170F22002807DA13071D0E1C4BE8
:104AD00000F00F04241F1D5503E013071C0E194B93
:104AE0001C5400BF00204FF0E022906107201061AD
:104AF00000BF0420FDF732FF10480838C068124993
:104B0000B0FBF1F0114908804FF4A060FDF78CFD77
:104B1000FEF7EEFBFEF72EFD01210846FDF7BAFD7C
:104B200001210B48FDF732FD4FF47A7000F0FAF8DE
:104B300008490888FEF798FB70BD0000D8000020E7
:104B400018ED00E000E400E040420F008800002083
:104B500000023000700100202DE9F04700BFEFF3A4
:104B6000108004461B48006880474FF0E020006931
:104B700000F4803000280DD000BFEFF3058000B9AD
:104B800044B1154802684068521C40F100001249C7
:104B90000A6048604FF0E020806910490988B0FB46
:104BA000F1F0C0F57A7000210B4A136857684FF492
:104BB0007A7CA3FB0C2907FB0C9703FB0173851878
:104BC00041EB030600BF84F3108800BF314628463E
:104BD000BDE8F0873400002080000020880000201D
:104BE0000149086849687047800000202DE9F041BC
:104BF00005460E4631462846FEF71EFB0446204673
:104C0000E21704EBD2625211A4EB421301229A4044
:104C10002146E31704EBD3635F11024B43F82720CF
:104C2000BDE8F08180E100E070B505460E463146F2
:104C30002846FEF701FB04462046E21704EBD26249
:104C40005211A4EB421301229A402146E31704EBD0
:104C5000D3635B119B0003F1E023C3F8002170BD17
:104C60002DE9F05F8046894615461E460024A2467F
:104C70000F2749464046FEF7DFFA83460A48006898
:104C800000F4E060C0F5E060040AC4F1040AE74003
:104C900005FA0AF406EA070004432401034800F871
:104CA0000B40BDE8F09F00000CED00E000E400E0E8
:104CB00070B504460E46002009E0124951F8301044
:104CC000A14203D10F4901EBC0014D68401C1C28D3
:104CD000F3D30D48844204D331462846FDF7BAFC8D
:104CE0000EE00A48844204D331462846FDF7D2FC40
:104CF00006E0B4F1804F03D331462846FDF7BAFCF5
:104D000070BD00005C50000800000240000001403F
:104D1000024B1960024B43F8202070476C000020C2
:104D2000240200204FF47A7191FBF0F1024A1180C5
:104D30000249088070470000920000209000002087
:104D400010B50446034951F824000349096888470F
:104D500010BD0000680400207C00002010B5002970
:104D60000AD00878002807D005487844FBF716FDDC
:104D7000002801D0002010BD0248784410BD00007A
:104D8000B2080000AA08000010B500290AD008786F
:104D9000002807D005487844FBF700FD002801D023
:104DA000002010BD0248784410BD000096090000A4
:104DB0008E0900000160002242617047491058BF0F
:104DC000C1F140415B1058BFC3F140438B42EFF348
:104DD0000080704751EA030C17D41CF5801F58BFA0
:104DE000BCF5801F00F10680994218BF704708BFCC
:104DF0009042704707D711F5801F58BF13F5801FE9
:104E000019D499427047894270471CF5801F08D514
:104E1000BCF5801FF7D58B4218BF704708BF824290
:104E200070474FF4001C1CEB410F38BF1CEB430FC5
:104E300001D28B42704770B500F008F89224490007
:104E40004FF000514FF08053FFF7B8BF0EF1020E44
:104E50002EF0030E5EF8046B364205D4012A43EBB4
:104E6000030515F5001F12D8012841EB010C1CF5B4
:104E7000001F0CD80ED14FEAD17C15F5001F0CEBAA
:104E80004C0C0CF1020C08BF4CEBD37C04E04FF04F
:104E9000080C01E04FEAD37C0CEB4C0526FA05F632
:104EA00006F00706B6F1040C06D20EEB860CBDE840
:104EB00070404CF0010C6047DFE80CF0090B020277
:104EC0004FF000414FF00000A1F5002170BD1946E0
:104ED0001046012851EB010418BFD4F5001484BF1B
:104EE000002001F0004170BD0808A0F500114FEA54
:104EF0003101704743004FEAD30C4FEA3C0C43406A
:104F00001FBF40070CF1605113F0FE4F70471CF0BB
:104F1000006F03D100200CF0004170470CF00043FB
:104F200043EA507010B540EACC0000F04FF800BFE3
:104F3000000000924FEA0001FFF7D6BF4FF000419A
:104F40004FF00000A1F500217047401058BFC0F19C
:104F50004040491058BFC1F140418142EFF3008009
:104F60007047000050EA010C00F113801CF5000F9F
:104F700058BFBCF5000F01D48842704707D710F521
:104F8000000F58BF11F5000F15D4884270478942B1
:104F900070471CF5000F04D5BCF5000FF7D5814212
:104FA00070474FF0807C1CEB400F38BF1CEB410F6B
:104FB00001D28142704710B500F008F892244900F0
:104FC0004FF000504FF08051FFF7BFBF0EF1020EBF
:104FD0002EF0030E5EF8044B244204D44FEA410243
:104FE000B2F17F4F11D84FEA4003B3F17F4F0CD895
:104FF0000ED14FEAD07CB2F17F4F0CEB4C0C0CF190
:10500000020C08BF4CEBD17C04E04FF0080C01E02F
:105010004FEAD17C0CEB4C0324FA03F404F00704B0
:10502000B4F1040C06D20EEB840CBDE810404CF039
:10503000010C6047DFE80CF0070802024FF0004067
:10504000A0F5800010BD0846420018BFD2F1807262
:1050500088BF00F0004010BDFBF7D1BD0008014043
:1050600004000000000C0140080000000010014096
:105070001000000000140140200000000018014052
:1050800040000000001C01408000000000200140A2
:1050900000010000002C014000080000000000405A
:1050A0000100000000040040020000000008004071
:1050B00004000000000C0040080000000010004048
:1050C00010000000001400402000000000340140E7
:1050D00000200000004C014000000800005001408A
:1050E000000010000054014000002000003001408A
:1050F000001000000038004000400000003C00406C
:1051000000800000005400400000200000580040D3
:105110000000400000380140004000000044004012
:10512000000002000048004000000400004C004065
:10513000000008000050004000001000002C01405A
:1051400019181A1B000000401C0000000004004059
:105150001D000000000800401E0000000024014067
:105160001200000000280140120000000030014041
:1051700023000000003800402400000000540040DC
:105180001F200000005800402122000008000240BB
:105190000B0000001C0002400C0000003000024028
:1051A0000D000000440002400E00000058000240C4
:1051B0000F0000006C000240100000008000024060
:1051C00011000000003801402500000000440040AC
:1051D00026000000004800402700000001000000F9
:1051E00006000000020000000700000004000000AC
:1051F0000800000008000000090000001000000086
:105200000A0000002000000017000000400000001D
:1052100017000000800000001700000000010000DF
:10522000170000000002000017000000000400004A
:105230002800000000080000280000000010000006
:1052400028000000002000002800000000400000AE
:10525000280000000080000028000000000C004032
:105260003200000000100040360000000014004032
:1052700037000000003401402B2C2D2E0804024082
:10528000380000001C0402403900000030040240D5
:105290003A000000440402403B0000005804024071
:1052A0003B000000003C004033000000004C004088
:1052B00034000000005000403500000004000008E9
:1052C00000000000000000020001000010000000CB
:1052D0000000000000000000303132333435363732
:1052E000383941424344454640305800303132332A
:1052F000343536373839616263646566403078002A
:1053000002400000000000A0000000000540000076
:10531000000000C8000000000C4000000000409C9D
:1053200000000000194000000020BCBE000000008A
:1053300034400000BFC91B8E00000004B5400000CF
:10534000504BCFD06607E2CF010000006C41000057
:105350003E8251AADFEEA73401000000D9420000CE
:10536000DCB5A0E23A301F97FFFFFFFFB445000015
:10537000FD25A0C8E9A3C14FFFFFFFFFFF3F0000CD
:105380000000008000000000FF3F000000000080DF
:10539000000000000000000000000000354100088F
:1053A0003541000835410008354100083541000805
:1053B00035410008354100083541000835410008F5
:1053C00035410008354100083541000835410008E5
:1053D00035410008354100083541000835410008D5
:1053E00035410008000000000000000035410008C1
:1053F00035410008354100083541000835410008B5
:1054000035410008354100083541000835410008A4
:105410003541000835410008000000000000000090
:105420003541000835410008354100083541000884
:105430003541000835410008354100083541000874
:105440000000000000000000CD3A0008113A0008FA
:105450000000000000000000354100088F3D0008FA
:10546000000000000000000000000000000000003C
:10547000000000000000000000000000000000002C
:10548000000000000000000000000000000000001C
:10549000000000000000000000000000000000000C
:1054A00000000000000000000000000000000000FC
:1054B00000000000000000000000000000000000EC
:1054C00000000000000000000000000000000000DC
:1054D00000000000000000000000000000000000CC
:1054E00000000000000000000000000000000000BC
:1054F00000000000000000000000000000000000AC
:10550000000000000000000000000000000000009B
:10551000000000000000000000000000000000008B
:10552000000000000000000000000000000000007B
:10553000000000000000000000000000000000006B
:10554000000000000000000000000000000000005B
:10555000000000000000000000000000000000004B
:10556000000000000000000000000000000000003B
:105570005D3F000800000000000000000000000087
:10558000000000000000000000000000000000001B
:105590005B4241544D414E5D3C6261746D616E2DC4
:1055A00030383425252D563A333038312D43533A8F
:1055B00030332D4C2D252D30342E346425252D43AC
:1055C000533A30302D563A252D30342E34642D493F
:1055D0003A252D30342E34642D312D522D3235356F
:1055E00025252D43533A30302D563A303030302D6A
:1055F000493A303030302D313E0A0000585700080B
:1056000000000020AC0000006C01000804580008F5
:10561000AC000020341000008801000810010000D8
:1056200043000000F8FFFFFF004040404040404082
:105630004040414141414140404040404040404065
:105640004040404040404040400502020202020209
:105650000202020202020202022020202020202058
:10566000202020020202020202029090909090906C
:10567000101010101010101010101010101010102A
:10568000101010100202020202028888888888889E
:10569000080808080808080808080808080808088A
:1056A0000808080802020202400000000000000092
:1056B00000000000000000000000000000000000EA
:1056C00000000000000000000000000000000000DA
:1056D00000000000000000000000000000000000CA
:1056E00000000000000000000000000000000000BA
:1056F00000000000000000000000000000000000AA
:105700000000000000000000000000000000000099
:105710000000000000000000000000000000000089
:105720000000000000000000000000001C0000005D
:1057300043000000F8FFFFFF0C0000000E00000017
:105740000F0000002E00000035EDFFFF15EDFFFFFC
:1057500055EDFFFFE9E9FFFF00000000010203042F
:1057600001020304060708090204060800000000FD
:105770000000000000000000000000000000000029
:105780000000000000000000000000000000000019
:105790000000000000000000000000000000000009
:1057A00000000000000000000000000000000000F9
:1057B00000000000000000000000000000000000E9
:1057C00000000000000000000000000000000000D9
:1057D00000000000000000000000000000000000C9
:1057E00000000000000000000000000000A24A04C9
:1057F0000000000000000000010203040607080981
:0458000000000000A4
:0400000508000131BD
:00000001FF
